{
  "contractName": "Count",
  "abi": [
    {
      "anonymous": false,
      "inputs": [
        {
          "indexed": true,
          "internalType": "address",
          "name": "_from",
          "type": "address"
        },
        {
          "indexed": false,
          "internalType": "uint256",
          "name": "_count",
          "type": "uint256"
        }
      ],
      "name": "Minus",
      "type": "event"
    },
    {
      "anonymous": false,
      "inputs": [
        {
          "indexed": true,
          "internalType": "address",
          "name": "_from",
          "type": "address"
        },
        {
          "indexed": false,
          "internalType": "uint256",
          "name": "_count",
          "type": "uint256"
        }
      ],
      "name": "Plus",
      "type": "event"
    },
    {
      "inputs": [],
      "name": "count",
      "outputs": [
        {
          "internalType": "uint256",
          "name": "",
          "type": "uint256"
        }
      ],
      "stateMutability": "view",
      "type": "function"
    },
    {
      "inputs": [],
      "name": "lastParticipant",
      "outputs": [
        {
          "internalType": "address",
          "name": "",
          "type": "address"
        }
      ],
      "stateMutability": "view",
      "type": "function"
    },
    {
      "inputs": [],
      "name": "plus",
      "outputs": [],
      "stateMutability": "nonpayable",
      "type": "function"
    },
    {
      "inputs": [],
      "name": "minus",
      "outputs": [],
      "stateMutability": "nonpayable",
      "type": "function"
    },
    {
      "inputs": [],
      "name": "minusRevert",
      "outputs": [],
      "stateMutability": "pure",
      "type": "function"
    }
  ],
  "bytecode": "0x60806040526000805534801561001457600080fd5b506104cf806100246000396000f3fe608060405234801561001057600080fd5b50600436106100575760003560e01c806306661abd1461005c57806314434fa51461007a57806318b0c3fd146100845780635844a9e51461008e578063bfe7e4e314610098575b600080fd5b6100646100b6565b60405161007191906102dd565b60405180910390f35b6100826100bc565b005b61008c610188565b005b610096610254565b005b6100a061029e565b6040516100ad9190610339565b60405180910390f35b60005481565b6000808154809291906100ce90610383565b919050555033600160006101000a81548173ffffffffffffffffffffffffffffffffffffffff021916908373ffffffffffffffffffffffffffffffffffffffff160217905550600160009054906101000a900473ffffffffffffffffffffffffffffffffffffffff1673ffffffffffffffffffffffffffffffffffffffff167f8c831f094106b8eba08d980c61852ee7c9b3256652ae34b7e687813d4ef1df4b60005460405161017e91906102dd565b60405180910390a2565b60008081548092919061019a906103ad565b919050555033600160006101000a81548173ffffffffffffffffffffffffffffffffffffffff021916908373ffffffffffffffffffffffffffffffffffffffff160217905550600160009054906101000a900473ffffffffffffffffffffffffffffffffffffffff1673ffffffffffffffffffffffffffffffffffffffff167f6515112f03aaecac2c8e2ee49294cf849254ef06a48a618eb1b27714c080ea2e60005460405161024a91906102dd565b60405180910390a2565b60001515600115151461029c576040517f08c379a000000000000000000000000000000000000000000000000000000000815260040161029390610479565b60405180910390fd5b565b600160009054906101000a900473ffffffffffffffffffffffffffffffffffffffff1681565b6000819050919050565b6102d7816102c4565b82525050565b60006020820190506102f260008301846102ce565b92915050565b600073ffffffffffffffffffffffffffffffffffffffff82169050919050565b6000610323826102f8565b9050919050565b61033381610318565b82525050565b600060208201905061034e600083018461032a565b92915050565b7f4e487b7100000000000000000000000000000000000000000000000000000000600052601160045260246000fd5b600061038e826102c4565b915060008214156103a2576103a1610354565b5b600182039050919050565b60006103b8826102c4565b91507fffffffffffffffffffffffffffffffffffffffffffffffffffffffffffffffff8214156103eb576103ea610354565b5b600182019050919050565b600082825260208201905092915050565b7f69742069732072657665727465642e205b726561736f6e5d207265766572742060008201527f696e20666f726365000000000000000000000000000000000000000000000000602082015250565b60006104636028836103f6565b915061046e82610407565b604082019050919050565b6000602082019050818103600083015261049281610456565b905091905056fea264697066735822122038ebdf5702600a2169c5762f0ad6aa7f810d3b21fc638686b0d7f0e2429a1d1064736f6c634300080a0033",
  "immutableReferences": {},
  "source": "//SPDX-License-Identifier: UNLICENSED\npragma solidity ^0.8.10;\n\n/*\n  * storage variables *\n  Count contract has 2 public storage variables.\n  1) count - By default, count's value is 0,\n             it could increase or decrease through `plus` or `minus` function.\n  2) lastParticipant - lastParticipant is last person's address\n                       who sent a transaction(called plus or minus) to Count contract.\n  Count contract.\n  * functions *\n  Count contract has 2 public functions.\n  1) plus - increase `count` storage variable by 1. (+1)\n  2) minus - decrease `count` storage variable by 1. (-1)\n */\n\ncontract Count {\n  uint public count = 0;\n  address public lastParticipant;\n  \n  event Plus(address indexed _from, uint _count);\n  event Minus(address indexed _from, uint _count);\n  \n  function plus() public {\n    count++;\n    lastParticipant = msg.sender;\n    emit Plus(lastParticipant, count);\n  }\n\n  function minus() public {\n    count--;\n    lastParticipant = msg.sender;\n    emit Minus(lastParticipant, count);\n  }\n  function minusRevert() public pure {\n    require(true == false, \"it is reverted. [reason] revert in force\");\n    \n  }\n}",
  "sourcePath": "/Users/sangil/study/truffle_demo/contracts/Count.sol",
  "compiler": {
    "name": "solc",
    "version": "0.8.10+commit.fc410830.Emscripten.clang"
  },
  "schemaVersion": "3.4.3",
  "updatedAt": "2021-12-12T02:40:50.044Z",
  "devdoc": {
    "kind": "dev",
    "methods": {},
    "version": 1
  },
  "userdoc": {
    "kind": "user",
    "methods": {},
    "version": 1
  }
}